:107C00000C94343E0C94513E0C94513E0C94513ED5
:107C10000C94513E0C94513E0C94513E0C94513EA8
:107C20000C94513E0C94513E0C94513E0C94513E98
:107C30000C94513E0C94513E0C94513E0C94513E88
:107C40000C94513E0C94513E0C94513E0C94513E78
:107C50000C94513E0C94513E0C94513E0C94513E68
:107C60000C94513E0C94513E11241FBECFEFD8E02E
:107C7000DEBFCDBF11E0A0E0B1E0E4EAFFE702C063
:107C800005900D92AC33B107D9F711E0ACE3B1E048
:107C900001C01D92A23AB107E1F70E94533E0C9435
:107CA000D03F0C94003E0E94763F0E94453F0E94C8
:107CB0005F3E0E94A53F78940E94F63EFDCFECE324
:107CC000F1E0118210823A9681E0E03AF807C9F7B4
:107CD00008951F93CF93DF93EC01142FA901ECE3D8
:107CE000F1E020E030E080819181892B69F5D901B4
:107CF000AA0FBB1FC901E3E0880F991FEA95E1F7BE
:107D0000A80FB91FA45CBE4F1196DC93CE93F90166
:107D1000EE0FFF1FEE0FFF1FE20FF31FEE0FFF1F0F
:107D2000E25CFE4F7183608315961C921E9214973D
:107D300016961C93169781E017968C9317971996B1
:107D40005C934E93189708C02F5F3F4F3A962A30A6
:107D5000310549F62FEF3FEFC901DF91CF911F9118
:107D600008958A30910570F4FC01B3E0EE0FFF1F17
:107D7000BA95E1F7880F991FE80FF91FE45CFE4FF1
:107D80001182108208959C01FC0193E0EE0FFF1F09
:107D90009A95E1F7220F331FE20FF31FE45CFE4FC9
:107DA00081E0878308959C01FC0153E0EE0FFF1FE3
:107DB0005A95E1F7220F331FE20FF31FE45CFE4FE9
:107DC00017820895ECE3F1E080819181892B41F0E5
:107DD0008781882329F08481958101969583848306
:107DE0003A9681E0E03AF80779F708950F931F93E8
:107DF000ECE3F1E0AFEF4FEF5FEF60E070E0808128
:107E00009181892B99F08781882381F024813581A4
:107E1000828193812817390748F08FEF4F3F580729
:107E200019F086818A1710F4A681AB016F5F7F4F2E
:107E30003A966A30710519F7AFEF4F3F5A0711F1C3
:107E40008A0173E0000F111F7A95E1F7440F551F67
:107E5000040F151F045C1E4FF8011582148280E088
:107E600091E00E948A3FD80118968D919C911997B4
:107E70000E948A3F87E091E00E948A3FD801ED91FD
:107E8000FC9109951F910F91089582E084BD83E0D4
:107E900085BD89EF87BDEEE6F0E08081826080835A
:107EA00016BC08951F920F920FB60F9211242F93B4
:107EB0003F934F935F936F937F938F939F93AF9372
:107EC000BF93EF93FF930E94E23EFF91EF91BF912A
:107ED000AF919F918F917F916F915F914F913F9162
:107EE0002F910F900FBE0F901F9018951092C50004
:107EF00087E68093C40088E18093C10086E0809388
:107F0000C2000895982F8091C00085FFFCCF909308
:107F1000C6000895FC0107C08091C00085FFFCCF1A
:107F200031969093C60090819923B1F7089580917E
:107F3000A0019091A10120E230E082279327909345
:107F4000A1018093A00185B90895259A87EC9FE34C
:107F500061E070E041E029E031E00E94693E87E99C
:107F60009FE364EF71E043E023E131E00E94693E6A
:107F700082EC9FE368EE73E045E02DE131E00E9482
:107F8000693E089584E291E00E948A3F08958091BD
:107F9000C00087FF04C08091C6000E94823F089500
:047FA000F894FFCF83
:107FA4005B52554E5D20000A00756172745F656313
:107FB400686F006C65645F626C696E6B006C6F6700
:107FC400676572005B494E464F5D20537973746553
:0C7FD4006D2072756E6E696E672E0A00DB
:0400000300007C007D
:00000001FF
